:100000000C942A000C943C000C943C000C943C0092
:100010000C943C000C943C000C943C000C943C0070
:100020000C943C000C943C000C943E000C943C005E
:100030000C943C000C943C000C943C000C943C0050
:100040000C943C000C943C000C943C000C943C0040
:100050000C943C0011241FBECFE5D8E0DEBFCDBF1D
:1000600010E0A0E6B0E001C01D92A236B107E1F7B2
:100070000E9455000C9476000C9400001F920F9281
:100080000FB60F9211248F939F93809160009091EF
:100090006100019690936100809360009F918F9121
:1000A0000F900FBE0F901F901895A09A8BE483BFFE
:1000B00082E089BF8DE78CBF789421E08091600059
:1000C00090916100885E9340C8F385B3822785BB19
:1000D0001092610010926000F1CFA09A08958BE415
:1000E00083BF82E089BF8DE78CBF0895F894FFCF6E
:00000001FF
